{
  "contractName": "ReferralProgram",
  "abi": [
    {
      "inputs": [
        {
          "internalType": "address",
          "name": "paymentToken_",
          "type": "address"
        },
        {
          "internalType": "uint256",
          "name": "paymentAmount_",
          "type": "uint256"
        },
        {
          "internalType": "uint256",
          "name": "referralFee_",
          "type": "uint256"
        }
      ],
      "stateMutability": "nonpayable",
      "type": "constructor"
    },
    {
      "inputs": [],
      "name": "paymentAmount",
      "outputs": [
        {
          "internalType": "uint256",
          "name": "",
          "type": "uint256"
        }
      ],
      "stateMutability": "view",
      "type": "function",
      "constant": true
    },
    {
      "inputs": [],
      "name": "paymentToken",
      "outputs": [
        {
          "internalType": "contract IERC20",
          "name": "",
          "type": "address"
        }
      ],
      "stateMutability": "view",
      "type": "function",
      "constant": true
    },
    {
      "inputs": [],
      "name": "referralFee",
      "outputs": [
        {
          "internalType": "uint256",
          "name": "",
          "type": "uint256"
        }
      ],
      "stateMutability": "view",
      "type": "function",
      "constant": true
    },
    {
      "inputs": [
        {
          "internalType": "address",
          "name": "",
          "type": "address"
        }
      ],
      "name": "referralFees",
      "outputs": [
        {
          "internalType": "uint256",
          "name": "",
          "type": "uint256"
        }
      ],
      "stateMutability": "view",
      "type": "function",
      "constant": true
    },
    {
      "inputs": [
        {
          "internalType": "address",
          "name": "referral_",
          "type": "address"
        }
      ],
      "name": "payPremium",
      "outputs": [],
      "stateMutability": "nonpayable",
      "type": "function"
    },
    {
      "inputs": [],
      "name": "claimReferralFee",
      "outputs": [],
      "stateMutability": "nonpayable",
      "type": "function"
    }
  ],
  "bytecode": "0x608060405234801561001057600080fd5b506040516104d63803806104d68339818101604052606081101561003357600080fd5b5080516020820151604090920151600080546001600160a01b039093166001600160a01b03199093169290921790915560019190915560025561045b8061007b6000396000f3fe608060405234801561001057600080fd5b50600436106100625760003560e01c80630675efbe146100675780633013ce2914610071578063582f56e21461009557806375780f42146100bb57806384ae2bc6146100f3578063c35905c6146100fb575b600080fd5b61006f610103565b005b6100796101b3565b604080516001600160a01b039092168252519081900360200190f35b61006f600480360360208110156100ab57600080fd5b50356001600160a01b03166101c2565b6100e1600480360360208110156100d157600080fd5b50356001600160a01b03166102c3565b60408051918252519081900360200190f35b6100e16102d5565b6100e16102db565b33600090815260036020526040902054156101b1573360008181526003602090815260408083208054908490558354825163a9059cbb60e01b8152600481019690965260248601829052915190946001600160a01b039092169363a9059cbb93604480850194919392918390030190829087803b15801561018357600080fd5b505af1158015610197573d6000803e3d6000fd5b505050506040513d60208110156101ad57600080fd5b5050505b565b6000546001600160a01b031681565b60008054600154604080516323b872dd60e01b81523360048201523060248201526044810192909252516001600160a01b03909216926323b872dd926064808401936020939083900390910190829087803b15801561022057600080fd5b505af1158015610234573d6000803e3d6000fd5b505050506040513d602081101561024a57600080fd5b50506001600160a01b038116156102c0576102a6610287670de0b6b3a76400006102816002546001546102e190919063ffffffff16565b90610343565b6001600160a01b038316600090815260036020526040902054906103aa565b6001600160a01b0382166000908152600360205260409020555b50565b60036020526000908152604090205481565b60025481565b60015481565b6000826102f05750600061033d565b828202828482816102fd57fe5b041461033a5760405162461bcd60e51b81526004018080602001828103825260218152602001806104056021913960400191505060405180910390fd5b90505b92915050565b6000808211610399576040805162461bcd60e51b815260206004820152601a60248201527f536166654d6174683a206469766973696f6e206279207a65726f000000000000604482015290519081900360640190fd5b8183816103a257fe5b049392505050565b60008282018381101561033a576040805162461bcd60e51b815260206004820152601b60248201527f536166654d6174683a206164646974696f6e206f766572666c6f770000000000604482015290519081900360640190fdfe536166654d6174683a206d756c7469706c69636174696f6e206f766572666c6f77a26469706673582212202f08acad3cdea48fa265bfb8d8ecae299fe8d984a46452bdc9daf96138d9cf1764736f6c63430007040033",
  "immutableReferences": {},
  "source": "// SPDX-License-Identifier: UNLICENSED\npragma solidity ^0.7.0;\n\nimport \"@openzeppelin/contracts/math/SafeMath.sol\";\n\ninterface IERC20 {\n  function totalSupply() external view returns (uint256);\n  function balanceOf(address account) external view returns (uint256);\n  function transfer(address recipient, uint256 amount) external returns (bool);\n  function allowance(address owner, address spender) external view returns (uint256);\n  function approve(address spender, uint256 amount) external returns (bool);\n  function transferFrom(address sender, address recipient, uint256 amount) external returns (bool);\n\n  event Transfer(address indexed from, address indexed to, uint256 value);\n  event Approval(address indexed owner, address indexed spender, uint256 value);\n}\n\n\ncontract ReferralProgram {\n\n  using SafeMath for uint256;\n\n  IERC20 public paymentToken;\n  uint256 public paymentAmount;\n  uint256 public referralFee;\n\n  mapping(address => uint256) public referralFees;\n\n  constructor(\n    address paymentToken_,\n    uint256 paymentAmount_,\n    uint256 referralFee_ // 1e18 scaled\n  ) {\n    paymentToken = IERC20(paymentToken_);\n    paymentAmount = paymentAmount_;\n    referralFee = referralFee_;\n  }\n\n  function payPremium(address referral_) external {\n    paymentToken.transferFrom(msg.sender, address(this), paymentAmount);\n\n    if (referral_ != address(0)) {\n      referralFees[referral_] = referralFees[referral_].add(paymentAmount.mul(referralFee).div(1E18));\n    }\n  }\n\n  function claimReferralFee() external {\n    if (referralFees[msg.sender] > 0) {\n      uint256 amount = referralFees[msg.sender];\n      referralFees[msg.sender] = 0;\n      paymentToken.transfer(msg.sender, amount);\n    }\n  }\n}\n\n",
  "sourcePath": "/Users/ka/Projects/Atomica/solvency-markets/hackaton/contracts/ReferralProgram.sol",
  "compiler": {
    "name": "solc",
    "version": "0.7.4+commit.3f05b770.Emscripten.clang"
  },
  "schemaVersion": "3.3.3",
  "updatedAt": "2021-02-10T08:19:02.374Z",
  "networkType": "ethereum",
  "devdoc": {
    "kind": "dev",
    "methods": {},
    "version": 1
  },
  "userdoc": {
    "kind": "user",
    "methods": {},
    "version": 1
  }
}